:100000000C94EE020C9416030C9416030C94160335
:100010000C9416030C9416030C9416030C940414FD
:100020000C9416030C9416030C9416030C941603EC
:100030000C9416030C9416030C9416030C941603DC
:100040000C94DE140C9416030C94AC140C948614CB
:100050000C9416030C9416030C9416030C941603BC
:100060000C9428150C94160300000000003E5B4F12
:100070005B3E3E6B4F6B3E1C3E7C3E1C183C7E3C08
:10008000181C577D571C1C5E7F5E1C00183C180016
:10009000FFE7C3E7FF0018241800FFE7DBE7FF30A6
:1000A000483A060E2629792926407F050507407F14
:1000B00005253F5A3CE73C5A7F3E1C1C08081C1C87
:1000C0003E7F14227F22145F5F005F5F06097F017D
:1000D0007F006689956A606060606094A2FFA29468
:1000E00008047E040810207E201008082A1C080836
:1000F0001C2A08081E101010100C1E0C1E0C303884
:100100003E3830060E3E0E06000000000000005F84
:1001100000000007000700147F147F14242A7F2AA0
:100120001223130864623649562050000807030062
:10013000001C2241000041221C002A1C7F1C2A08AE
:10014000083E080800807030000808080808000011
:1001500060600020100804023E5149453E00427F85
:10016000400072494949462141494D331814127FD4
:100170001027454545393C4A494931412111090774
:100180003649494936464949291E000014000000F5
:1001900040340000000814224114141414140041C7
:1001A00022140802015909063E415D594E7C121184
:1001B000127C7F494949363E414141227F414141BC
:1001C0003E7F494949417F090909013E4141517337
:1001D0007F0808087F00417F41002040413F017FA8
:1001E000081422417F404040407F021C027F7F0470
:1001F00008107F3E4141413E7F090909063E4151B9
:10020000215E7F09192946264949493203017F01A8
:10021000033F4040403F1F2040201F3F4038403FA9
:10022000631408146303047804036159494D4300BF
:100230007F4141410204081020004141417F0402F6
:10024000010204404040404000030708002054548D
:1002500078407F284444383844444428384444286B
:100260007F385454541800087E090218A4A49C78BE
:100270007F0804047800447D40002040403D007F1A
:100280001028440000417F40007C047804787C08FA
:100290000404783844444438FC18242418182424CE
:1002A00018FC7C08040408485454542404043F44B3
:1002B000243C4040207C1C2040201C3C4030403CE2
:1002C00044281028444C9090907C4464544C440042
:1002D00008364100000077000000413608000201A6
:1002E0000204023C2623263C1EA1A161123A404092
:1002F000207A38545455592155557941225454780F
:1003000042215554784020545579400C1E527212A7
:100310003955555559395454545939555454580030
:1003200000457C410002457D420001457C407D1234
:1003300011127DF0282528F07C5455450020545496
:100340007C547C0A097F4932494949323A44444441
:100350003A324A4848303A4141217A3A424020787C
:10036000009DA0A07D3D4242423D3D4040403D3C7D
:1003700024FF2424487E4943662B2FFC2F2BFF09A2
:1003800029F620C0887E0903205454794100004496
:100390007D413048484A32384040227A007A0A0A81
:1003A000727D0D19317D2629292F282629292926F4
:1003B00030484D4020380808080808080808382F39
:1003C00010C8ACBA2F102834FA00007B00000814C3
:1003D0002A142222142A14085500550055AA55AA99
:1003E00055AAFF55FF55FF000000FF00101010FF39
:1003F00000141414FF001010FF00FF1010F010F094
:10040000141414FC001414F700FF0000FF00FF1484
:1004100014F404FC141417101F10101F101F1414D0
:10042000141F00101010F0000000001F101010101A
:100430001F10101010F010000000FF10101010100E
:1004400010101010FF10000000FF140000FF00FF4C
:1004500000001F10170000FC04F4141417101714E8
:1004600014F404F40000FF00F7141414141414140A
:10047000F700F7141414171410101F101F1414147D
:10048000F4141010F010F000001F101F0000001FE7
:1004900014000000FC140000F010F01010FF10FF1A
:1004A000141414FF141010101F00000000F010FFAF
:1004B000FFFFFFFFF0F0F0F0F0FFFFFF0000000093
:1004C00000FFFF0F0F0F0F0F3844443844FC4A4A17
:1004D0004A347E02020606027E027E0263554941CC
:1004E000633844443C04407E201E2006027E020203
:1004F00099A5E7A5991C2A492A1C4C7201724C3017
:100500004A4D4D303048784830BC625A463D3E49ED
:100510004949007E0101017E2A2A2A2A2A44445F91
:10052000444440514A444040444A51400000FF0185
:1005300003E080FF000008086B6B08361236243693
:10054000060F090F060000181800000010100030F8
:1005500040FF0101001F01011E00191D1712003C80
:100560003C3C3C0000000000000103070F1F3F7FE0
:100570000080C0E0F0F8FCFE00000000240027002E
:100580002A000000000023002600290000000008C7
:10059000000201000003040700000000000000004A
:1005A0002200FF2100010204081020408001020403
:1005B0000810200102040810200000000025002877
:1005C000002B0004040404040404040202020202D6
:1005D000020303030303030243162F1A11241FBE51
:1005E000CFEFD8E0DEBFCDBF11E0A0E0B1E0E2E7A1
:1005F000FCE302C005900D92A63AB107D9F723E0BB
:10060000A6EAB1E001C01D92A937B207E1F712E0F6
:10061000CDEED2E004C02197FE010E94E61CCC3E44
:10062000D107C9F70E94E6160C942C1E0C9400000A
:10063000AF92BF92CF92DF92EF92FF920F931F93F0
:10064000CF93DF936C017B018B01040F151FEB012E
:100650005E01AE18BF08C017D10759F06991D601E5
:10066000ED91FC910190F081E02DC6010995892B57
:1006700079F7C501DF91CF911F910F91FF90EF9016
:10068000DF90CF90BF90AF900895FC01538D448DC3
:10069000252F30E0842F90E0821B930B541710F02D
:1006A000CF96089501970895FC01918D828D98173A
:1006B00061F0A28DAE0FBF2FB11D5D968C91928D12
:1006C0009F5F9F73928F90E008958FEF9FEF089543
:1006D000FC01918D828D981731F0828DE80FF11D0C
:1006E000858D90E008958FEF9FEF0895FC01918D27
:1006F000228D892F90E0805C9F4F821B91098F7320
:100700009927089587E592E00E94760321E0892BDE
:1007100009F420E0822F089580E090E0892B29F0F1
:100720000E94820381110C9400000895FC01A48DA5
:10073000A80FB92FB11DA35ABF4F2C91848D90E003
:1007400001968F739927848FA689B7892C93A089E6
:10075000B1898C91837080648C93938D848D981370
:1007600006C00288F389E02D80818F7D8083089503
:10077000EF92FF920F931F93CF93DF93EC0181E0F1
:10078000888F9B8D8C8D98131AC0E889F989808198
:1007900085FF15C09FB7F894EE89FF896083E889CB
:1007A000F98980818370806480839FBF81E090E0BD
:1007B000DF91CF911F910F91FF90EF900895F62E4A
:1007C0000B8D10E00F5F1F4F0F731127E02E8C8DE4
:1007D0008E110CC00FB607FCFACFE889F989808129
:1007E00085FFF5CFCE010E949603F1CFEB8DEC0F84
:1007F000FD2FF11DE35AFF4FF0829FB7F8940B8F46
:10080000EA89FB8980818062CFCFCF93DF93EC01AF
:10081000888D8823B9F0AA89BB89E889F9898C91E8
:1008200085FD03C0808186FD0DC00FB607FCF7CFA4
:100830008C9185FFF2CF808185FFEDCFCE010E94A4
:100840009603E9CFDF91CF910895833081F028F4AA
:10085000813099F08230A9F008958730A9F088306E
:10086000C9F08430B1F4809180008F7D03C0809105
:1008700080008F7780938000089584B58F7784BD42
:10088000089584B58F7DFBCF8091B0008F778093E2
:10089000B00008958091B0008F7DF9CF1F93CF9362
:1008A000DF93282F30E0F901E457FA4F8491F901E2
:1008B000EB55FA4FD491F901ED53FA4FC491CC2383
:1008C000A9F0162F81110E942504EC2FF0E0EE0F05
:1008D000FF1FE754FA4FA591B4918FB7F894EC91AC
:1008E000111108C0D095DE23DC938FBFDF91CF912B
:1008F0001F910895DE2BF8CFCF93DF9390E0FC019A
:10090000EB55FA4F24918D539A4FFC018491882323
:10091000D1F090E0880F991FFC01E858FA4FA5919B
:10092000B491FC01E754FA4FC591D491623071F44F
:100930009FB7F8943C91822F809583238C93E88114
:100940002E2B28839FBFDF91CF9108958FB7F89406
:10095000EC912E2B2C938FBFF6CF8F929F92AF925C
:10096000BF92CF92DF92EF92FF920F931F93CF939C
:100970008C016A017B0180910301883071F08F3F07
:10098000A1F1CF911F910F91FF90EF90DF90CF9049
:10099000BF90AF909F908F900895E7EDF5E0C491E0
:1009A000C7FDEFCF61E088E00E947C04CC2319F002
:1009B000C23009F089C0980150E040E068E478EE68
:1009C00081E090E00E94BC1C49015A0181E0881A34
:1009D0009108A108B108CC2309F4D2C08091B100DC
:1009E000887F84608093B10087C088E08093030192
:1009F000E7EDF5E0C491CF3F09F4C3CFC13021F159
:100A000050F0C23009F43EC0C7FDBBCF61E088E0C2
:100A10000E947C04CDCF14BC15BC84B5826084BD1B
:100A200085B5816085BDEBECF5E0E491F0E0EE0F7B
:100A3000FF1FE754FA4F85919491EDEAF5E0E491B8
:100A4000E0934A02C0E0AECF109280001092810085
:100A50008091810088608093810080918100816015
:100A600080938100EBECF5E0E491F0E0EE0FFF1FE6
:100A7000E754FA4F85919491EDEAF5E0E491E09323
:100A8000490290CF1092B0001092B1008091B00056
:100A900082608093B0008091B10081608093B1004A
:100AA000EBECF5E0E491F0E0EE0FFF1FE754FA4FB6
:100AB000859194919093480280934702EDEAF5E086
:100AC000E491E09346026ECF980150E040E060E090
:100AD00072E18AE790E00E94BC1C49015A0181E062
:100AE000881A9108A108B108C13031F480918100C1
:100AF000887F816080938100D801AA0FBB1FA70166
:100B000096010E94DB1C28EE33E040E050E00E949A
:100B10009A1CC13099F0C23019F1C11132CF87BC93
:100B2000209353023093540240935502509356023F
:100B300080916E00826080936E0023CF9092890036
:100B40008092880020934F023093500240935102CC
:100B50005093520280916F00826080936F0011CF9A
:100B60008092B30020934B0230934C0240934D028D
:100B700050934E028091700082608093700001CF8C
:100B800085B5887F836085BDB7CF3FB7F8948091E6
:100B9000320290913302A0913402B091350226B511
:100BA000A89B05C02F3F19F00196A11DB11D3FBFA5
:100BB000BA2FA92F982F8827BC01CD01620F711D74
:100BC000811D911D42E0660F771F881F991F4A956E
:100BD000D1F7089585ED8093BC008091BC0084FD21
:100BE000FCCF10920B0208952091E701260F3327C6
:100BF000331F21323105ECF420910B02FC0190E00F
:100C000080E0243069F082E00895A091E70121910D
:100C1000AC0149535E4FA40FB52FB11D2C93019623
:100C2000861798F38091E701680F6093E70180E0F1
:100C3000089581E0089508958FEF9FEF08958FEF55
:100C40009FEF08958091C60190E09195819591095B
:100C50000895CF92DF92EF92FF920F931F93CF935D
:100C6000DF937C01CB018A0120914502222389F088
:100C7000EB016B01C40ED51ECC15DD0569F0699141
:100C8000D701ED91FC910190F081E02DC70109950C
:100C9000F3CF642F0E94F405C801DF91CF911F911B
:100CA0000F91FF90EF90DF90CF900895CF93DF9357
:100CB0001F92CDB7DEB76983209145022223F9F058
:100CC00020914202203258F021E030E0FC013383D1
:100CD000228390E080E00F90DF91CF910895809182
:100CE0004302E82FF0E0EA55FE4F998190838F5F31
:100CF000809343028093420281E090E0ECCF61E078
:100D0000CE0101960E94F405F7CF2091420281E0C6
:100D1000213208F044C080910B028111FCCF8091F8
:100D2000440292E090930B0291E090930D029FEFAA
:100D300090930A0210922F0220932E02A6EAB1E0AD
:100D4000EEE0F2E090E0291331C010923002909171
:100D50003002880F892B8093300280910C02813001
:100D600049F510920C02809130028093BB00809173
:100D7000BC0083FDF8CF85EC8093BC0080910B0212
:100D80008230E1F380910A028F3FB1F080910A0234
:100D90008032A1F080910A02803391F084E01092B9
:100DA0004302109242021092450208953D91319300
:100DB0009F5FC9CF85EEE0CF80E0F1CF82E0EFCF3B
:100DC00083E0EDCFEF92FF920F931F93CF93DF93CA
:100DD000EC01EC80FD806E157F050CF070C057FFB4
:100DE00004C0240F351F50E040E08E819F81FA013E
:100DF000E20FF31F8E179F071CF49C01241B350B79
:100E0000121613060CF05BC0922F842F86958695E0
:100E100086958E9DD0018F9DB00D11246A0F7B1F8A
:100E2000AF8DB8A1A60FB71F477049F188E0841BAA
:100E3000482F682F70E0FB01E059FA4FE491281722
:100E400008F063C0621B71092FEF30E002C03595D6
:100E500027956A95E2F7E2230130110539F0B0F1E8
:100E60000230110561F58C91E82702C08C91E82BC6
:100E7000EC93941720F12C813D81A20FB31FE92F31
:100E8000E41BE83078F00230110521F58E2F9C919B
:100E900090959C932C813D81A20FB31F8850883080
:100EA000B0F7E770EE2359F0F0E0E859FA4FE4911B
:100EB00001301105F9F010F10230110519F1DF913F
:100EC000CF911F910F91FF90EF900895E0958C9135
:100ED000E823CECF81E00115110509F480E081956A
:100EE0009E2F8C932C813D81A20FB31F9850983078
:100EF000C0F7D7CF8C91E82BEC93E1CFE0958C91A4
:100F0000E823FACF8C91E827F7CF0130110509F4D7
:100F1000ADCFE0F20230110509F4A5CFAE0DBF1D33
:100F2000AECF0F931F93CF93DF9377FF04C0260FAD
:100F3000371F70E060E0DC011496CD91DC91FB017D
:100F4000E20FF31FCE17DF071CF49E01261B370BA1
:100F5000121613064CF5FA0157FD3796A3E0F595E6
:100F6000E795AA95E1F7EC9FD001ED9FB00DFC9FAE
:100F7000B00D11246A0F7B1FDC015F96ED91FC918F
:100F8000E60FF71F4770552781E090E001C0880FFA
:100F90004A95EAF7482F0130110559F0A8F02E0FB5
:100FA0003F1F02301105E1F0DF91CF911F910F91AA
:100FB00008952E0F3F1FE217F307B1F38191DF0170
:100FC0001197842B8C93F7CF80952E0F3F1FE2173C
:100FD000F30751F39191DF01119798239C93F7CF79
:100FE000E217F30709F38191DF01119784278C93AE
:100FF000F7CF0F931F93FA01DC0156964C91569749
:101000004230E9F04330A1F1413061F514964D9141
:101010005C91DA01AE1BBF0BFD01E21BF30B77FD08
:101020000BC0DC0116964D915C916417750724F492
:10103000AB01BF010E9491071F910F910895149673
:101040004D915C91DA01A61BB70BBD01615071098E
:10105000DC0116964D915C91DA01AE1BBF0BFD01D0
:10106000E21BF30B77FDE8CFAF010E94E206E4CF6D
:1010700016964D915C91DA01A61BB70BBD0161502C
:101080007109CDCF0F931F93FA01DC0156964C9155
:1010900056974230A9F0433091F1413019F514963A
:1010A0004D915C91DA01AE1BBF0BFD013197F7FD4D
:1010B00004C0AB01BF010E94E2061F910F91089589
:1010C00014964D915C91DA01A61BB70BBD01DC01B2
:1010D00016964D915C91DA01AE1BBF0BFD01319765
:1010E000621B730BF7FDE9CFDC0116964D915C9105
:1010F000E417F50714F7AF010E949107DECF1696AB
:101100004D915C91DA01A61BB70BBD01621B730BFD
:10111000CECFFC0177FD64C0808591856817790783
:101120000CF05EC057FD5CC0828593854817590757
:101130000CF056C086898230B1F0833029F18130BD
:1011400041F484819581841B950BAB01BC016150F6
:1011500071092130310509F108F443C0223031050D
:1011600009F463C0089584819581DC01A61BB70B47
:10117000BD016150710986819781DC01A41BB50B0B
:10118000AD0141505109E5CF86819781861B970BB0
:10119000BA01AC0141505109DCCFCA0157FD079695
:1011A000A3E095958795AA95E1F7A481B5818A9FDB
:1011B00090018B9F300D9A9F300D1124620F731F89
:1011C000078CF0A1E02DE60FF71F4770552721E0AF
:1011D00030E001C0220F4A95EAF78081822B80839C
:1011E0000895CA0157FD079633E0959587953A957E
:1011F000E1F7A481B5818A9F90018B9F300D9A9F62
:10120000300D1124620F731F078CF0A1E02DE60F43
:10121000F71F4770552781E090E001C0880F4A957D
:10122000EAF7809590818923DACFCA0157FD0796A6
:1012300023E0959587952A95E1F7A481B5818A9F4A
:1012400090018B9F300D9A9F300D1124620F731FF8
:10125000078CF0A1E02DE60FF71F4770552721E01E
:1012600030E001C0220F4A95EAF780818227B7CF8C
:1012700008958EBD00000DB407FEFDCF8EB5089514
:101280001F93CF93DF93EC018D8D9E8D009721F1FD
:10129000162F29A131E03093450220934402109289
:1012A000430210924202DC01ED91FC910190F08129
:1012B000E02D60E009958D8D9E8DDC01ED91FC9116
:1012C0000190F081E02D612F09958D8D9E8DDF912C
:1012D000CF911F910C948506ADA5BEA59C918BA9BD
:1012E000809589238C938B8D9C8D892B31F0862F53
:1012F000DF91CF911F910C94390928E030E080E80C
:10130000A9A5BAA599A9462F4823C1F04C91942BC1
:101310009C93ABA5BCA59C914AA9942B9C93ABA58F
:10132000BCA54C919AA9909594239C9386952150A5
:10133000310931F7DF91CF911F9108954C9190952C
:101340009423E6CF8CBD9DBD0895EF92FF920F933D
:101350001F93CF93DF9380911D0390911E03892BE0
:1013600009F46BC020913503309136034091370367
:101370005091380360E074E284EF90E00E949A1C80
:1013800020513109410951095695479537952795BF
:101390002093B80080911D0390911E03009709F4DB
:1013A000DBC02091210331E03093450220934402B9
:1013B0001092430210924202DC01ED91FC910190E7
:1013C000F081E02D60E0099500EA15E0D6E0C1E08B
:1013D000FF24F39480911D0390911E03D15009F4D2
:1013E00043C0C032C8F00E94850680911D039091D1
:1013F0001E0320912103F092450220934402109293
:10140000430210924202DC01ED91FC910190F081C7
:10141000E02D60E00995C1E080911D0390911E03CD
:10142000F8016491DC01ED91FC910190F081E02DD7
:101430000995CF5F0F5F1F4FCDCF80911B03909118
:101440001C03892B31F080913E0390913F030E9451
:10145000A209E0912F03F091300390818091340331
:1014600080958923808396CF0E948506609104032E
:10147000615080E093E00E94400920910603309182
:101480000703C901079697FD079623E09595879571
:101490002A95E1F72091040330910503829F800192
:1014A000839F100D929F100D1124C0911F03D091A6
:1014B000200380911D0390911E030C0F1D1F0097A8
:1014C00009F4B9C02091210331E030934502209303
:1014D00044021092430210924202DC01ED91FC9111
:1014E0000190F081E02D60E40995FF24F394EE244F
:1014F000E39480911D0390911E030C171D0709F4BE
:1015000072C0BFE1BF15D0F40E94850680911D0313
:1015100090911E0320912103E09245022093440202
:101520001092430210924202DC01ED91FC91019075
:10153000F081E02D60E40995FF24F39480911D0370
:1015400090911E036991DC01ED91FC910190F08175
:10155000E02D0995F394CDCFE0912D03F0912E036A
:10156000908180913303809589238083C0EAD5E000
:1015700016E0115009F47ACFFE01849120911B03EB
:1015800030911C03232B21F00E9439092196F1CFC1
:1015900028E030E040E8E0912903F0912A0390919F
:1015A0003103582F5423D9F05081952B9083E0912B
:1015B0002B03F0912C03908150913203952B908353
:1015C000E0912B03F0912C03508190913203909580
:1015D00095239083469521503109E9F6D7CF508164
:1015E00090959523E3CF0E94850680911D039091ED
:1015F0001E03892B09F460C02091390330913A030E
:1016000040913B0350913C0360E074E284EF90E032
:101610000E949A1C2051310941095109569547955C
:10162000379527952093B800DF91CF911F910F91A7
:10163000FF90EF900895E0912D03F0912E038081AB
:1016400090913303892B80830C171D0771F28991C8
:1016500020911B0330911C03232B19F00E943909A0
:10166000F3CF28E030E040E8E0912903F0912A032D
:1016700090913103582F5423D9F05081952B9083AA
:10168000E0912B03F0912C03908150913203952B24
:101690009083E0912B03F0912C03508190913203C1
:1016A000909595239083469521503109E9F6CCCF4A
:1016B000508190959523E3CFE0912F03F091300373
:1016C000808190913403892B8083AECF1F93CF9379
:1016D000DF93EC01162F8D8D9E8D892BB1F12DA9F5
:1016E0003EA94FA958AD60E074E284EF90E00E94FB
:1016F0009A1C205131094109510956954795379552
:1017000027952093B80066EA111167EACE010E947E
:1017100040098D8D9E8D892B41F129AD3AAD4BADA0
:101720005CAD60E074E284EF90E00E949A1C20516E
:1017300031094109510956954795379527952093C9
:10174000B800DF91CF911F9108958B8D9C8D892BCF
:1017500021F08EAD9FAD0E94A209EFA5F8A990815E
:101760008CA9809589238083CECFEFA5F8A98081AD
:101770009CA9892B8083E5CF0895FC016370668B5B
:101780008481958126813781613039F0633029F079
:1017900091878087338722870895318720879387B1
:1017A000828708952F923F924F925F926F927F921D
:1017B0008F929F92AF92BF92CF92DF92EF92FF9261
:1017C0000F931F93CF93DF93CDB7DEB76A970FB612
:1017D000F894DEBF0FBECDBF9A8F898F7A8369835D
:1017E0004A01D22E18870F833701BC2CDC01599691
:1017F0002D913C915A972115310509F015C1189684
:101800008D919C911997681779070CF0D7C11A969A
:101810008D919C91481759070CF0D0C14C2C512C3C
:10182000B6E0CB9E600D711D11247C876B87161668
:1018300017060CF0C3C1EA2DF0E0FA87E98793E0C0
:10184000EE0FFF1F9A95E1F7F88BEF87CF01840F1A
:10185000951F181619060CF0B1C1A98DBA8D5896AE
:101860008C91811104C0BFEABD1508F4D394A98DF1
:10187000BA8DED91FC9111970284F385E02DCD0195
:101880000995B5E0DB9EC0011124E981FA81FC8352
:10189000EB83312C212C9C0128593F4F388F2F8B03
:1018A0004A2D50E05E8B4D8BEF89F88DE20DF31DD4
:1018B00044919E828D82D12CC12C69817A81620DE6
:1018C000731D7A8B698B842F90E09C8B8B8BE98DB9
:1018D000FA8DA081B18140FF82C0F1E0BF126FC0DC
:1018E000AF126DC01C96ED91FC912F813885A4013B
:1018F0004C0D5D1D69897A89898D9A8D0995EB89D1
:10190000FC89F595E7954E2F5FEFC51AD50A6D81D5
:101910007E818D899E89680F791F7E836D8398E013
:10192000C916D10481F6AFEF2A1A3A0AEB81FC817D
:10193000E40DF51DFC83EB83F5E02F16310409F06F
:10194000B3CF2F81388526153705B9F0A98DBA8D0B
:10195000ED91FC91B1E0BB1257C0AB1255C069814B
:101960007A816B5F7F4F0088F189E02D830128E049
:1019700030E0A401898D9A8D0995A98DBA8DED91DC
:10198000FC9111970688F789E02DCD016A960FB674
:10199000F894DEBF0FBECDBFDF91CF911F910F91A5
:1019A000FF90EF90DF90CF90BF90AF909F908F907F
:1019B0007F906F905F904F903F902F9009941E966C
:1019C000ED91FC91EF80F88409851A8592014D8193
:1019D0005E816B817C81898D9A8D099590CF2F8155
:1019E00038852615370509F48ACF31E0B31207C0D0
:1019F000A31205C01C96ED91FC91930178CF1E9621
:101A0000ED91FC917301E0CF6B857C8564197509BC
:101A10000684F785E02D73010F8518899201A401D2
:101A2000898D9A8D0995A9CFF901349694913297B1
:101A300045915491D91AB7E0DB9E400D511D1124F8
:101A4000F901259134913C8B2B8BFA012590349030
:101A5000FA013296749031963491398B32966490B3
:101A60003196449041E04C1518F04A1508F07FC0BB
:101A7000662D062C000C770B7C836B83842D042C45
:101A8000000C990B9E838D83A98DBA8DED91FC91ED
:101A900011970284F385E02DCD010995512CD12CAD
:101AA000C12CEA2DF0E0FA87E9872B2D30E03C8746
:101AB0002B87A401440D511D47FC5A95588F4F8B1D
:101AC00069817A81660D711D67FC7A957E876D87C5
:101AD0007989C71608F051CF2C2D30E04D815E81F9
:101AE000420F531FA985BA854A9FC0014B9F900D95
:101AF0005A9F900D1124FC01E80DF91DF88BEF871A
:101B0000852D612C4F89588D420F531F5E8B4D8B55
:101B1000671408F050C044244394480E877041F481
:101B2000C1010196EB89FC89E20DF31DD4901C01E3
:101B3000D7FE19C0A98DBA8DED91FC91662D70E08C
:101B4000B1E0BB1219C0AB1217C02D853E85620FE4
:101B5000731F0484F585E02D2F8138854D895E89BA
:101B6000898D9A8D0995DD0C6394842DD1CF1E82C9
:101B70001D821C821B8288CF4B815C81640F751F84
:101B8000AB85BC856A9FC0016B9F900D7A9F900DBD
:101B9000112469817A81680F791F0684F785E02D09
:101BA000EF80F88409851A859D014F855889898DB4
:101BB0009A8D0995D8CF570CC3948ACF6A960FB6E1
:101BC000F894DEBF0FBECDBFDF91CF911F910F9173
:101BD000FF90EF90DF90CF90BF90AF909F908F904D
:101BE0007F906F905F904F903F902F9008958F92CD
:101BF0009F92AF92CF92EF92FF920F931F93CF934A
:101C0000DF93EC01262F898D9A8D009709F051C042
:101C10006A30D1F41D861C868D8948E0849F90012E
:101C200011248E859F85820F931F9F878E8781E069
:101C300090E0DF91CF911F910F91FF90EF90CF90A7
:101C4000AF909F908F9008956D3089F3CC88AD88C8
:101C50008F898823C1F08C859D8536E0C39E800DD9
:101C6000911D1124488559854817590764F44E85FC
:101C70005F851D861C8638E0A39EC0011124840F59
:101C8000951F9F878E87EA88FB88088919894E856A
:101C90005F856C857D85CE010E94D20B2C898C8559
:101CA0009D8546E0249F800D911D11249D878C8782
:101CB000BECF6A3069F41D861C86FC013696E4911D
:101CC0002D898E859F85E29F800D911D1124ADCFBA
:101CD0006D3009F4ACCFFC0134963491631708F4ED
:101CE000A6CF3196E491E61708F4A1CFFC01329615
:101CF00085909490462F431B342F47E0349F800CEF
:101D0000911C1124F401329634913196E4913323DD
:101D1000A9F1EE2399F1CC88F4013596E491AD88D0
:101D20004F89442301F10E2E000CFF0BE30FF11D30
:101D3000CE9EA001CF9E500D11246C857D85460F4F
:101D4000571F68857985641775076CF44E855F8524
:101D50001D861C86FC013696E491AE9E400D511DF9
:101D600011245F874E87EA88FB88088919894E8588
:101D70005F856C857D85CE010E94D20BF40134967F
:101D8000E4912C898C859D85E29F800D911D112405
:101D90008DCF6F927F928F929F92AF92BF92CF9290
:101DA000DF92EF92FF920F931F93CF93DF93EC019B
:101DB0006B015A0139014801E881F9810284F385F8
:101DC000E02D0995E881F9810288F389E02D8701EA
:101DD0009301A501B601CE010995A501480D591D34
:101DE00041505109E881F9810288F389E02D93017E
:101DF000B601CE010995E881F9810088F189E02DCD
:101E00009401A501B601CE010995C60CD71CB601F7
:101E100061507109E881F9810088F189E02D940110
:101E2000A501CE010995E881F9810688F789E02DA1
:101E3000CE01DF91CF911F910F91FF90EF90DF9036
:101E4000CF90BF90AF909F908F907F906F900994AC
:101E50006F927F928F929F92AF92BF92CF92DF92BA
:101E6000EF92FF920F931F93CF93DF935C01EB01EF
:101E70006A01490138018701DC01ED91FC9162178B
:101E8000730719F5641675062CF0962D872D3A0107
:101E9000C92ED82E9601261937092F5F3F4F048C83
:101EA000F58DE02DA301BE01C5010995DF91CF910C
:101EB0001F910F91FF90EF90DF90CF90BF90AF9068
:101EC0009F908F907F906F9008954615570591F4DD
:101ED0002617370724F0892D4B01C22FD82F9E01DA
:101EE000281939092F5F3F4F068CF78DE02DA60189
:101EF000B401DACF0284F385E02D0995D501ED9187
:101F0000FC910488F589E02D83019401A601BE01AE
:101F1000C5010995D501ED91FC910688F789E02D61
:101F2000C501DF91CF911F910F91FF90EF90DF904E
:101F3000CF90BF90AF909F908F907F906F900994BB
:101F4000EF92FF920F931F93DC011A960D911C9153
:101F50001B9718962D913C911997ED91FC9100A03B
:101F6000F1A1E02D7B0150E040E070E060E00995D8
:101F70001F910F91FF90EF9008954F925F926F9293
:101F80007F928F929F92AF92BF92CF92DF92EF9209
:101F9000FF920F931F93CF93DF936C012B015A0194
:101FA00039014801DC01ED91FC910284F385E02DBB
:101FB0000995E201640C751CD601ED91FC91C615E2
:101FC000D7055CF40088F189E02D87019401A50113
:101FD000BE01C60109952196EFCF0688F789E02D4D
:101FE000C601DF91CF911F910F91FF90EF90DF908D
:101FF000CF90BF90AF909F908F907F906F905F90A9
:102000004F9009948F929F92AF92BF92CF92DF929E
:10201000EF92FF920F931F93CF93DF93EC015B013D
:102020004A016901E881F9810284F385E02D09956F
:1020300095012C0D3D1D21503109E881F98104885D
:10204000F589E02D78018401A401B501CE0109953F
:10205000E881F9810688F789E02DCE01DF91CF91E3
:102060001F910F91FF90EF90DF90CF90BF90AF90B6
:102070009F908F9009948F929F92AF92BF92CF9230
:10208000DF92EF92FF920F931F93CF93DF93EC01B8
:102090005B014A0169017801E881F9810284F385D5
:1020A000E02D0995C80CD91C860101501109E88161
:1020B000F9810488F589E02D9501A401B501CE01CF
:1020C0000995E881F9810688F789E02DCE01DF9135
:1020D000CF911F910F91FF90EF90DF90CF90BF9025
:1020E000AF909F908F900994EF92FF920F931F9360
:1020F000DC01ED91FC9100A0F1A1E02D09951F916B
:102100000F91FF90EF9008950F931F93DC01ED91D5
:10211000FC91068CF78DE02D09951F910F91089584
:102120000F931F93DC01ED91FC91048CF58DE02D54
:1021300009951F910F910895DC01ED91FC910084A8
:10214000F185E02D09942F923F924F925F926F920A
:102150007F928F929F92AF92BF92CF92DF92EF9237
:10216000FF920F931F93CF93DF9300D000D000D046
:10217000CDB7DEB73C016A013E832D83FC82EB8242
:102180005801A41AB50AB7FE03C0B194A194B108CE
:102190008D809E80861A970A97FE03C09194819441
:1021A00091088A149B045CF0902F812F0D811E8171
:1021B0009D838E839C2D8D2D6B01692F782F0C159F
:1021C0001D055CF09D818E817E836D83692F782F44
:1021D000902F812F8601C92ED82E1601201A310A80
:1021E0002B012D813E81421A530A57FE03C05194A0
:1021F00041945108710137FE03C03FEFE31AF30A1F
:10220000F594E7948D819E81861797075CF5A1E090
:10221000B0E0BA83A983C016D1064CF1D301ED9189
:10222000FC910484F585E02D2B813C81A8016D8112
:102230007E818A149B041CF04D815E81B801C3012C
:102240000995E418F508F7FE0AC02D813E818981C1
:102250009A81280F391F3E832D83E20CF31C0F5FF8
:102260001F4FD9CF2FEF3FEF3A832983D4CF269644
:102270000FB6F894DEBF0FBECDBFDF91CF911F9197
:102280000F91FF90EF90DF90CF90BF90AF909F9015
:102290008F907F906F905F904F903F902F90089518
:1022A000089590E080E008954F925F926F927F9240
:1022B0008F929F92AF92BF92CF92DF92EF92FF9256
:1022C000CF93DF93CDB7DEB728970FB6F894DEBF74
:1022D0000FBECDBF6B017C0180916F0390917003A5
:1022E000A0917103B09172038C0D9D1DAE1DBF1D99
:1022F00080934C0390934D03A0934E03B0934F03F0
:102300008090480390904903A0904A03B0904B03FB
:10231000A5019401C501B4010E943F1A6D837E831B
:102320008F8398870E94451C9B01AC0160E074E29A
:1023300084E799E40E94B01A69837A838B839C8333
:1023400060935B0370935C0380935D0390935E03E3
:1023500040904403509045036090460370904703BB
:10236000A301920160E074E284E799E40E94B01A4C
:1023700060935103709352038093530390935403DB
:10238000A3019201C301B2010E94D21B2D813E81A3
:102390004F8158850E94B01A2B013C0120E030E0AB
:1023A000A9010E94CD1B20E030E040E05FE387FD03
:1023B00097C1C301B2010E943F1A0E94221B609381
:1023C000550370935603809357039093580321E06D
:1023D00030E0F7FE0AC0F094E094D094C094C11CA1
:1023E000D11CE11CF11C2FEF3FEF30935A032093D7
:1023F0005903660F771F881F991F6C157D058E0581
:102400009F0564F0F594E794D794C794C092550360
:10241000D0925603E0925703F092580389819A8133
:10242000AB81BC8180935F0390936003A0936103B1
:10243000B093620325EA34ED48E653E5C501B401E3
:102440000E94B01A609367037093680380936903D6
:1024500090936A0381E08093500340916F03509101
:102460007003609171037091720380914C0390919D
:102470004D03A0914E03B0914F03481759076A07C7
:102480007B0709F418C180915003882361F00E94F2
:10249000C505609363037093640380936503909311
:1024A0006603109250030E94C5054B015C018091A8
:1024B000630390916403A0916503B0916603750175
:1024C0006401C81AD90AEA0AFB0A60915F03709195
:1024D000600380916103909162030E94291BC616DC
:1024E000D706E806F90608F4B8CF80914C0390911E
:1024F0004D03A0914E03B0914F0340916F03509153
:1025000070036091710370917203841B950BA60B8D
:10251000B70BB7FF07C0B095A095909581959F4FD9
:10252000AF4FBF4F409155035091560360915703F1
:1025300070915803481759076A077B0789F48091FF
:10254000670390916803A0916903B0916A03B05842
:102550008093670390936803A0936903B0936A0321
:1025600080917303909174032091590330915A0321
:10257000821B930B97FDB9C09093740380937303F0
:102580008091730390917403049724F01092740364
:1025900010927303809173039091740381309105BD
:1025A00009F4CDC00CF0A8C0892B09F4B7C0C090C5
:1025B0005903D0905A030D2C000CEE08FF088091AF
:1025C0006F0390917003A0917103B0917203C80ED4
:1025D000D91EEA1EFB1EC0926F03D0927003E092D8
:1025E0007103F092720340905F035090600360901B
:1025F00061037090620340926B0350926C0360928F
:102600006D0370926E0320916703309168034091CF
:10261000690350916A03C301B2010E94D21BA30156
:1026200092010E94D21B9B01AC0160E070E080E847
:102630009FE30E943E1AA30192010E94D21B609365
:102640005F037093600380936103909362034090F3
:102650005103509052036090530370905403A301B0
:1026600092010E94AB1A87FF08C040925F0350920C
:1026700060036092610370926203809263039092A0
:102680006403A0926503B092660380914C0390911D
:102690004D03A0914E03B0914F03C816D906EA0628
:1026A000FB0609F0DACE10926B0310926C031092C5
:1026B0006D0310926E0328960FB6F894DEBF0FBE1E
:1026C000CDBFDF91CF91FF90EF90DF90CF90BF9083
:1026D000AF909F908F907F906F905F904F900895F4
:1026E000C301B2010E943E1A68CEA3E0B0E0B093ED
:1026F0007403A093730344CF82309105A9F103972B
:1027000009F055CF61E0809140030E944E0460E0E3
:10271000809141030E944E0460E00BC060E0809114
:1027200040030E944E0460E0809141030E944E04E9
:1027300061E0809142030E944E0461E010C060E0BD
:10274000809140030E944E0461E0809141030E9409
:102750004E0461E0809142030E944E0460E080914B
:1027600043030E944E0423CF61E0809140030E9406
:102770004E0461E0809141030E944E0460E0EACF84
:102780002091060330910703C901079697FD07962C
:1027900023E0959587952A95E1F7209104033091E0
:1027A0000503829FA001839F500D929F500D11241D
:1027B00070E060E080911F03909120030C94251E2F
:1027C0000E94201EFB0101900020E9F73197AF0124
:1027D000461B570BDC01ED91FC910280F381E02D4B
:1027E0000994CF93DF93BC0187E592E00E94E21346
:1027F000EC016AE571E087E592E00E94E2138C0F3C
:102800009D1FDF91CF9108951F920F920FB60F92E7
:1028100011242F933F934F935F936F937F938F93E5
:102820009F93AF93BF93EF93FF9380914B0290914F
:102830004C02A0914D02B0914E02892B8A2B8B2B1A
:10284000D1F190914602E0914702F09148028081D7
:102850008927808380914B0290914C02A0914D0278
:10286000B0914E02181619061A061B069CF48091A8
:102870004B0290914C02A0914D02B0914E020197F3
:10288000A109B10980934B0290934C02A0934D0291
:10289000B0934E02FF91EF91BF91AF919F918F91B5
:1028A0007F916F915F914F913F912F910F900FBE4C
:1028B0000F901F90189580910301E7EDF5E0E491EA
:1028C0009FEF90930301E13051F030F0E23069F076
:1028D00060E00E944E04DECF10926E00F9CF90911E
:1028E0006F009D7F90936F00F3CF909170009D7F5C
:1028F0009093700091E09093B0009091B100987F18
:1029000094609093B1001092B300E2CF1F920F92A7
:102910000FB60F9211242F933F934F935F936F93B2
:102920007F938F939F93AF93BF93EF93FF9387E52D
:1029300092E00E949603FF91EF91BF91AF919F911A
:102940008F917F916F915F914F913F912F910F9058
:102950000FBE0F901F9018951F920F920FB60F92F7
:1029600011242F938F939F93EF93FF93E09167022E
:10297000F09168028081E0916D02F0916E0282FD1B
:102980001BC09081809170028F5F8F7320917102C4
:10299000821741F0E0917002F0E0E95AFD4F958F07
:1029A00080937002FF91EF919F918F912F910F90E3
:1029B0000FBE0F901F9018958081F4CF1F920F9239
:1029C0000FB60F9211242F933F938F939F93AF9342
:1029D000BF938091360290913702A0913802B09156
:1029E00039023091310223E0230F2D3758F501963B
:1029F000A11DB11D209331028093360290933702BE
:102A0000A0933802B0933902809132029091330240
:102A1000A0913402B09135020196A11DB11D8093A1
:102A2000320290933302A0933402B0933502BF91E7
:102A3000AF919F918F913F912F910F900FBE0F906B
:102A40001F90189526E8230F0296A11DB11DD2CF25
:102A50001F920F920FB60F9211242F933F934F9313
:102A60005F936F937F938F939F93AF93BF93EF93F6
:102A7000FF938091B900887F803609F44AC0F0F551
:102A8000883209F4A5C018F5803109F499C0B8F46A
:102A9000882309F4F5C0883009F492C0FF91EF91C2
:102AA000BF91AF919F918F917F916F915F914F9166
:102AB0003F912F910F900FBE0F901F901895883166
:102AC00009F486C0803251F780930A0214C0803422
:102AD00009F49BC040F48033B9F38833F9F680934E
:102AE0000A0285ECAEC0803509F483C0883509F44C
:102AF00094C0883499F60E94EA05D0CF883909F449
:102B00008AC038F5883729F050F4883611F08037BC
:102B100029F683E080930B021092090255C0883891
:102B200009F479C0803919F0803809F0B7CF809165
:102B30000902803208F06FC0E091090281E08E0F37
:102B4000809309028091BB00F0E0E751FE4F808343
:102B50003BC0803B39F0D0F4803A09F477C0883A22
:102B600009F09CCF84E080930B021092E801109250
:102B7000E701F0E0E0E009958091E70181110FC0E5
:102B800081E08093E7011092C70109C0803C09F4FD
:102B9000A8CF883C09F4A5CF883B09F07FCFE0910E
:102BA000E80181E08E0F8093E801F0E0E953FE4FE9
:102BB00080818093BB009091E8018091E70129C05A
:102BC000809130028093BB0085EC8093BC0066CF7F
:102BD00090912F0280912E02981758F5E0912F02C4
:102BE00081E08E0F80932F02F0E0E25FFD4F808145
:102BF000E9CFE0912F0281E08E0F80932F02809128
:102C0000BB00F0E0E25FFD4F808390912F02809146
:102C10002E029817C8F285E8D8CFE0912F0281E004
:102C20008E0F80932F028091BB00F0E0E25FFD4F9A
:102C3000808380910D0281115ECF81E080930C0230
:102C400084EA8093BC0010920B0228CF85EC80931D
:102C5000BC0010920B0280910902803230F4E091A6
:102C60000902F0E0E751FE4F10826091090270E026
:102C700089EE91E0F0E0E0E00995109209020ECFB4
:102C800010920A0238CFE7E5F2E01382128248EE92
:102C900053E060E070E044835583668377838EE081
:102CA00091E09183808385EC90E09587848784EC24
:102CB00090E09787868780EC90E0918B808B81EC09
:102CC00090E0938B828B82EC90E0958B848B86ECEA
:102CD00090E0978B868B118E128E138E148EA4EF3C
:102CE000B2E013961C921E92129714964D935D9328
:102CF0006D937C93179780E291E011969C938E934D
:102D0000E0E4F3E0108211821282138217A610AA67
:102D100011AA12AA40E050E060E873E444835583AE
:102D20006683778340E050E060E074E44087518739
:102D30006287738713A614A615A616A614AA13AA4B
:102D4000E0E0F3E01382128220E830E03583248350
:102D500080E290E0978386833187208793878287FC
:102D6000168A158614861786168681E0858B848BD5
:102D70002FEF3FEF338B228B318B208B878B108E85
:102D8000128E118E82E391E091838083148E138ED4
:102D9000B68FA58F10A2178E8FEF84A385A386A36D
:102DA00087A380A780E89AE1A6E0B0E085AB96AB68
:102DB000A7ABB0AF80EA96E8A1E0B0E081AF92AFF8
:102DC000A3AFB4AF80E586AF17AE0895CF93DF937E
:102DD000CDB7DEB7A3970FB6F894DEBF0FBECDBF59
:102DE000789484B5826084BD84B5816084BD85B5E6
:102DF000826085BD85B5816085BD80916E008160F2
:102E000080936E0010928100809181008260809397
:102E10008100809181008160809381008091800099
:102E20008160809380008091B10084608093B100C4
:102E30008091B00081608093B00080917A008460BE
:102E400080937A0080917A00826080937A008091EA
:102E50007A00816080937A0080917A008068809304
:102E60007A001092C10062E082E00E947C0461E07E
:102E700088E00E947C04E0916702F091680282E0A1
:102E80008083E0916302F09164021082E091650218
:102E9000F09166028FEC808310926F02E0916B02DA
:102EA000F0916C0296E09083E0916902F0916A02E1
:102EB000808180618083E0916902F0916A02808163
:102EC00088608083E0916902F0916A028081806865
:102ED0008083E0916902F0916A0280818F7D808316
:102EE0008BE0809340038AE08093410390934203F8
:102EF00085E08093430361E08BE00E947C0460E006
:102F0000809140030E944E0461E0809141030E9441
:102F10007C0460E0809141030E944E0461E0809156
:102F200042030E947C0460E0809142030E944E04B0
:102F300061E0809143030E947C0460E08091430340
:102F40000E944E042AE0422E512C612C712C3FE04D
:102F5000232E312C01E010E08FB7F89480903602D8
:102F600090903702A0903802B09039028FBFC09085
:102F70000101D090020121E0C216D10409F035C14F
:102F800040E951E060E070E080E293E00E94AD042F
:102F90008DE591E00E94F11380E090E0A0E8B3E4B9
:102FA0008093440390934503A0934603B093470353
:102FB00020E030E040E054E420934803309349039C
:102FC00040934A0350934B038091400290914102F9
:102FD000892B59F580913C0290913D02A0913E02CF
:102FE000B0913F02A5019401281B390B4A0B5B0BE2
:102FF000DA01C90180329340A105B105B4F060E067
:1030000072E080E090E00E94541189E691E00E9415
:10301000F11380923C0290923D02A0923E02B09247
:103020003F02D0924102C092400280913C029091B6
:103030003D02A0913E02B0913F02A5019401281BE0
:10304000390B4A0B5B0BDA01C90180329340A105B1
:10305000B105F4F080914002909141020197C1F4D2
:1030600060E07CEF8FEF9FEF0E9454118DE791E0BD
:103070000E94F11380923C0290923D02A0923E0287
:10308000B0923F0282E090E0909341028093400230
:1030900080913C0290913D02A0913E02B0913F028E
:1030A000A5019401281B390B4A0B5B0BDA01C901FE
:1030B000883E9340A105B105ACF18091400290910A
:1030C0004102029779F50E94C01380E290E090934C
:1030D0000D0380930C0330920F0320920E03109384
:1030E000130300931203109311030093100381E064
:1030F00080931403809315036DE571E080E093E005
:103100000E94E2130E94A50980923C0290923D0227
:10311000A0923E02B0923F0283E090E09093410281
:103120008093400280913C0290913D02A0913E022A
:10313000B0913F02A5019401281B390B4A0B5B0B90
:10314000DA01C9010A97A105B105C4F080914002D6
:1031500090914102039791F40E94C0130E94A50927
:1031600080923C0290923D02A0923E02B0923F02B9
:1031700084E090E0909341028093400280913C0271
:1031800090913D02A0913E02B0913F02A5019401B1
:10319000281B390B4A0B5B0BDA01C9018E359140B4
:1031A000A105B10514F1809140029091410204976C
:1031B000E1F448EC50E060E070E084EF91E00E94C0
:1031C000AD0480923C0290923D02A0923E02B092E9
:1031D0003F0245E050E0509341024093400282E0BC
:1031E00090E0909302018093010189E090E09BA31D
:1031F0008AA3EEE8F5E08491E7EAF5E0C490E5EC17
:10320000F5E0D490DD2089F081110E942504ED2D98
:10321000F0E0EE0FFF1FEE57FA4FA591B4918C919D
:10322000C822BB24B394C11001C0B12CFB2DF17096
:10323000BF2E80910001F81708F0A8C080913A02D3
:1032400090913B02019690933B0280933A0244E6B0
:1032500050E060E070E080E293E00E94AD0460E046
:1032600072E080E090E00E9454110E94C0132AE0B6
:1032700030E030930D0320930C0330920F03209223
:103280000E03109313030093120310931103009382
:10329000100331E0309314033093150363E971E0B8
:1032A00080E093E00E94E2130E94A5094DE050E007
:1032B00050930D0340930C0330920F0320920E03A2
:1032C0001093130300931203109311030093100340
:1032D00051E0509314035093150320913A0230911A
:1032E0003B024AE5429FC001439F900D11246C01AF
:1032F000092E000CEE08FF0897FF9BC06DE280E0EE
:1033000093E00E94F70D22273327A9012C193D09CC
:103310004E095F0919A2CE0181966C01CA01B9015B
:10332000A30192010E949A1C605DD6016E936D010B
:10333000211531054105510589F7C114D10429F042
:10334000B60180E093E00E94E2130E94A509E2E149
:10335000F0E0F0930D03E0930C0330920F03209202
:103360000E031093130300931203109311030093A1
:103370001003F1E0F0931403F09315036AE971E090
:1033800080E093E00E94E2130E94A509B092000140
:103390000E94C5056B017C0182E3882E912CA12C33
:1033A000B12C0E94C5056C197D098E099F09683EE4
:1033B000734081059105A8F321E0821A9108A108C4
:1033C000B10838EEC30E33E0D31EE11CF11C8114AA
:1033D0009104A104B10429F780913A0290913B0233
:1033E000089791F440E951E060E070E080E293E0FA
:1033F0000E94AD0460E07EEF8FEF9FEF0E945411BA
:1034000010923B0210923A028AA19BA101979BA3C2
:103410008AA3892B09F0EDCE80E090E0892B09F496
:103420009BCD0E948203882309F496CD0E94000060
:1034300093CDA701960119A2FE01B1966F01CA01B1
:10344000B901A30192010E949A1C605DD6016E939E
:103450006D01211531054105510589F76ECF82E3D4
:1034600091E0909301038093000380911F0390915A
:103470002003009711F00C94971D08955058BB2716
:10348000AA270E94561A0C94931B0E94851B38F0A1
:103490000E948C1B20F039F49F3F19F426F40C9401
:1034A000821B0EF4E095E7FB0C947C1BE92F0E9435
:1034B000A41B58F3BA17620773078407950720F017
:1034C00079F4A6F50C94C61B0EF4E0950B2EBA2FDA
:1034D000A02D0B01B90190010C01CA01A00111241A
:1034E000FF27591B99F0593F50F4503E68F11A16C6
:1034F000F040A22F232F342F4427585FF3CF469557
:1035000037952795A795F0405395C9F77EF41F1678
:10351000BA0B620B730B840BBAF09150A1F0FF0F42
:10352000BB1F661F771F881FC2F70EC0BA0F621F2E
:10353000731F841F48F4879577956795B795F7951E
:103540009E3F08F0B0CF9395880F08F09927EE0FB3
:103550009795879508950E94581B08F481E0089577
:103560000E94C41A0C94931B0E948C1B58F00E945A
:10357000851B40F029F45F3F29F00C947C1B51110E
:103580000C94C71B0C94821B0E94A41B68F3992304
:10359000B1F3552391F3951B550BBB27AA2762174F
:1035A0007307840738F09F5F5F4F220F331F441F5C
:1035B000AA1FA9F335D00E2E3AF0E0E832D0915090
:1035C0005040E695001CCAF72BD0FE2F29D0660F7D
:1035D000771F881FBB1F261737074807AB07B0E8C0
:1035E00009F0BB0B802DBF01FF2793585F4F3AF0C6
:1035F0009E3F510578F00C947C1B0C94C71B5F3FD9
:10360000E4F3983ED4F3869577956795B795F7954B
:103610009F5FC9F7880F911D9695879597F9089533
:10362000E1E0660F771F881FBB1F621773078407CF
:10363000BA0720F0621B730B840BBA0BEE1F88F7DE
:10364000E09508950E94291B6894B1110C94C71B42
:1036500008950E94AC1B88F09F5798F0B92F9927C6
:10366000B751B0F0E1F0660F771F881F991F1AF06D
:10367000BA95C9F714C0B13091F00E94C61BB1E0F1
:1036800008950C94C61B672F782F8827B85F39F0F0
:10369000B93FCCF3869577956795B395D9F73EF406
:1036A00090958095709561957F4F8F4F9F4F0895AE
:1036B000990F0008550FAA0BE0E8FEEF1616170643
:1036C000E807F907C0F012161306E407F50798F0AB
:1036D000621B730B840B950B39F40A2661F0232BC4
:1036E000242B252B21F408950A2609F4A140A69540
:1036F0008FEF811D811D089597F99F6780E870E025
:1037000060E008959FEF80EC089500240A94161657
:10371000170618060906089500240A9412161306BF
:10372000140605060895092E0394000C11F488234D
:1037300052F0BB0F40F4BF2B11F460FF04C06F5F69
:103740007F4F8F4F9F4F089557FD9058440F551F3F
:1037500059F05F3F71F04795880F97FB991F61F013
:103760009F3F79F087950895121613061406551F8A
:10377000F2CF4695F1DF08C0161617061806991FF6
:10378000F1CF86957105610508940895E894BB27EB
:1037900066277727CB0197F908950E94581B08F4F4
:1037A0008FEF08950E94E51B0C94931B0E94851BCC
:1037B00038F00E948C1B20F0952311F00C947C1B98
:1037C0000C94821B11240C94C71B0E94A41B70F341
:1037D000959FC1F3950F50E0551F629FF001729FB6
:1037E000BB27F00DB11D639FAA27F00DB11DAA1FC5
:1037F000649F6627B00DA11D661F829F2227B00D12
:10380000A11D621F739FB00DA11D621F839FA00D9C
:10381000611D221F749F3327A00D611D231F849FEC
:10382000600D211D822F762F6A2F11249F57504043
:103830009AF0F1F088234AF0EE0FFF1FBB1F661FBE
:10384000771F881F91505040A9F79E3F510580F087
:103850000C947C1B0C94C71B5F3FE4F3983ED4F39D
:10386000869577956795B795F795E7959F5FC1F72B
:10387000FE2B880F911D9695879597F9089519F459
:1038800016F40C94821B0C94851C0E94AC1BB8F39C
:103890009923C9F3B6F39F57550B87FF0E94931CDA
:1038A0000024A0E640EA900180585695979528F4A8
:1038B000805C660F771F881F20F0261737074807A0
:1038C00030F4621B730B840B202931294A2BA695F7
:1038D00017940794202531254A2758F7660F771F3C
:1038E000881F20F026173707480730F4620B730B48
:1038F000840B200D311D411DA09581F7B901842F46
:103900009158880F9695879508959F3F31F0915073
:1039100020F4879577956795B795880F911D9695B3
:10392000879597F9089591505040660F771F881F2B
:10393000D2F70895A1E21A2EAA1BBB1BFD010DC0F0
:10394000AA1FBB1FEE1FFF1FA217B307E407F5074F
:1039500020F0A21BB30BE40BF50B661F771F881F2B
:10396000991F1A9469F760957095809590959B01C1
:10397000AC01BD01CF010895052E97FB1EF4009404
:103980000E94D31C57FD07D00E949A1C07FC03D04D
:103990004EF40C94D31C50954095309521953F4F93
:1039A0004F4F5F4F089590958095709561957F4F2B
:1039B0008F4F9F4F08950E94EC1CA59F900DB49FC0
:1039C000900DA49F800D911D11240895EE0FFF1FEF
:1039D0000590F491E02D0994A29FB001B39FC0011E
:1039E000A39F700D811D1124911DB29F700D811D2B
:1039F0001124911D08950F931F93CF93DF9382306D
:103A0000910510F482E090E0E0917703F091780363
:103A100030E020E0B0E0A0E0309799F421153105C6
:103A200009F44AC0281B390B24303105D8F58A81A6
:103A30009B816115710589F1FB0193838283FE01EE
:103A400011C0408151810281138148175907E0F06C
:103A50004817590799F4109761F012960C93129732
:103A600013961C933296CF01DF91CF911F910F9146
:103A700008950093770310937803F4CF211531054F
:103A800051F04217530738F0A901DB019A01BD013B
:103A9000DF01F801C1CFEF01F9CF90937803809354
:103AA0007703CDCFFE01E20FF31F81939193225054
:103AB000310939832883D7CF20917503309176035C
:103AC000232B41F4209106013091070130937603B6
:103AD00020937503209104013091050121153105D2
:103AE00041F42DB73EB74091080150910901241BC4
:103AF000350BE0917503F0917603E217F307A0F41C
:103B00002E1B3F0B2817390778F0AC014E5F5F4F33
:103B10002417350748F04E0F5F1F509376034093EC
:103B20007503819391939FCFF0E0E0E09CCFCF931A
:103B3000DF930097E9F0FC01329713821282A09183
:103B40007703B0917803ED0130E020E01097A1F405
:103B500020813181820F931F20917503309176036C
:103B60002817390709F061C0F0937603E0937503D5
:103B7000DF91CF910895EA01CE17DF07E8F54A817A
:103B80005B819E0141155105B1F7E901FB83EA8391
:103B900049915991C40FD51FEC17FD0761F480813D
:103BA00091810296840F951FE90199838883828110
:103BB00093819B838A83F0E0E0E012968D919C9143
:103BC00013970097B9F52D913C911197CD0102966D
:103BD000820F931F209175033091760328173907C0
:103BE00039F6309751F51092780310927703B0931D
:103BF0007603A0937503BCCFD383C28340815181E8
:103C0000840F951FC817D90761F44E5F5F4F8881F5
:103C10009981480F591F518340838A819B819383E7
:103C200082832115310509F0B0CFF0937803E0933A
:103C300077039ECFFD01DC01C0CF13821282D7CF64
:103C400081E090E0F8940C942C1EDC0101C06D938F
:103C500041505040E0F7089512E0CDEED2E004C0AC
:103C6000FE010E94E61C2196CE3ED107C9F7F894CA
:023C7000FFCF84
:103C7200010100FF00007903800000000000B8038A
:103C8200180345030504760354036803000000008B
:103C92005606290651111B0622061F061C060000A5
:103CA2000000F70D18035111501189081B069C10D2
:103CB200741090108410A3101B06BD0B660BF9073D
:103CC2004208BD0FA00F280FC90E0D0A0048656CEF
:103CD2006C6F204D4454212100537465702043576A
:103CE200203930202044656772656573005374651E
:103CF2007020434357203138302020446567726575
:103D0200657300537465703A200044656772657389
:063D1200732021210000D6
:107E0000112484B714BE81FFF0D085E080938100F7
:107E100082E08093C00088E18093C10086E0809377
:107E2000C20080E18093C4008EE0C9D0259A86E02C
:107E300020E33CEF91E0309385002093840096BBD3
:107E4000B09BFECF1D9AA8958150A9F7CC24DD24C4
:107E500088248394B5E0AB2EA1E19A2EF3E0BF2EE7
:107E6000A2D0813461F49FD0082FAFD0023811F036
:107E7000013811F484E001C083E08DD089C08234E0
:107E800011F484E103C0853419F485E0A6D080C0E4
:107E9000853579F488D0E82EFF2485D0082F10E0AE
:107EA000102F00270E291F29000F111F8ED06801E7
:107EB0006FC0863521F484E090D080E0DECF843638
:107EC00009F040C070D06FD0082F6DD080E0C81688
:107ED00080E7D80618F4F601B7BEE895C0E0D1E017
:107EE00062D089930C17E1F7F0E0CF16F0E7DF06D8
:107EF00018F0F601B7BEE89568D007B600FCFDCFD4
:107F0000A601A0E0B1E02C9130E011968C91119780
:107F100090E0982F8827822B932B1296FA010C0160
:107F200087BEE89511244E5F5F4FF1E0A038BF0790
:107F300051F7F601A7BEE89507B600FCFDCF97BE46
:107F4000E89526C08437B1F42ED02DD0F82E2BD052
:107F50003CD0F601EF2C8F010F5F1F4F84911BD097
:107F6000EA94F801C1F70894C11CD11CFA94CF0C13
:107F7000D11C0EC0853739F428D08EE10CD085E9AC
:107F80000AD08FE07ACF813511F488E018D01DD067
:107F900080E101D065CF982F8091C00085FFFCCF94
:107FA0009093C60008958091C00087FFFCCF809118
:107FB000C00084FD01C0A8958091C6000895E0E648
:107FC000F0E098E1908380830895EDDF803219F02E
:107FD00088E0F5DFFFCF84E1DECF1F93182FE3DFCA
:107FE0001150E9F7F2DF1F91089580E0E8DFEE27F6
:047FF000FF270994CA
:027FFE00040479
:0400000300007E007B
:00000001FF
