:100000000C945E000C9486000C9486000C94860080
:100010000C9486000C9486000C9486000C942402A8
:100020000C9486000C9486000C9486000C94860038
:100030000C9486000C9486000C9486000C94860028
:100040000C943F030C9486000C940D030C94E7026F
:100050000C9486000C9486000C9486000C94860008
:100060000C9489030C9486000000000024002700F3
:100070002A0000000008000201000003040700003D
:10008000000000000000010204081020408001026E
:1000900004081020010204081020000000002500C0
:1000A00028002B00040404040404040402020202D5
:1000B00002020303030303030200A40411241FBE6E
:1000C000CFEFD8E0DEBFCDBF11E0A0E0B1E0E4E8C3
:1000D000FCE002C005900D92A431B107D9F722E0EF
:1000E000A4E1B1E001C01D92A633B207E1F710E030
:1000F000CEE5D0E004C02197FE010E943A06CD353E
:10010000D107C9F70E94D1040C9440060C9400005A
:10011000AF92BF92CF92DF92EF92FF920F931F9315
:10012000CF93DF936C017B018B01040F151FEB0153
:100130005E01AE18BF08C017D10759F06991D6010A
:10014000ED91FC910190F081E02DC6010995892B7C
:1001500079F7C501DF91CF911F910F91FF90EF903B
:10016000DF90CF90BF90AF900895FC01538D448DE8
:10017000252F30E0842F90E0821B930B541710F052
:10018000CF96089501970895FC01918D828D98175F
:1001900061F0A28DAE0FBF2FB11D5D968C91928D37
:1001A0009F5F9F73928F90E008958FEF9FEF089568
:1001B000FC01918D828D981731F0828DE80FF11D31
:1001C000858D90E008958FEF9FEF0895FC01918D4C
:1001D000228D892F90E0805C9F4F821B91098F7345
:1001E0009927089589E991E00E94E60021E0892B92
:1001F00009F420E0822F089580E090E0892B29F017
:100200000E94F20081110C9400000895FC01A48D5D
:10021000A80FB92FB11DA35ABF4F2C91848D90E028
:1002200001968F739927848FA689B7892C93A0890B
:10023000B1898C91837080648C93938D848D981395
:1002400006C00288F389E02D80818F7D8083089528
:10025000EF92FF920F931F93CF93DF93EC0181E016
:10026000888F9B8D8C8D98131AC0E889F9898081BD
:1002700085FF15C09FB7F894EE89FF896083E889F0
:10028000F98980818370806480839FBF81E090E0E2
:10029000DF91CF911F910F91FF90EF900895F62E6F
:1002A0000B8D10E00F5F1F4F0F731127E02E8C8D09
:1002B0008E110CC00FB607FCFACFE889F98980814E
:1002C00085FFF5CFCE010E940601F1CFEB8DEC0F3B
:1002D000FD2FF11DE35AFF4FF0829FB7F8940B8F6B
:1002E000EA89FB8980818062CFCFCF93DF93EC01D5
:1002F000888D8823B9F0AA89BB89E889F9898C910E
:1003000085FD03C0808186FD0DC00FB607FCF7CFC9
:100310008C9185FFF2CF808185FFEDCFCE010E94C9
:100320000601E9CFDF91CF910895CF93DF9390E05D
:10033000FC01EA57FF4F24918C559F4FFC0184919B
:100340008823D1F090E0880F991FFC01E859FF4FF6
:10035000A591B491FC01E656FF4FC591D49162304E
:1003600071F49FB7F8943C91822F809583238C93EE
:10037000E8812E2B28839FBFDF91CF9108958FB7FF
:10038000F894EC912E2B2C938FBFF6CF85ED8093B4
:10039000BC008091BC0084FDFCCF109259010895EF
:1003A00020913501260F3327331F21323105ECF41C
:1003B00020915901FC0190E080E0243069F082E056
:1003C0000895A09135012191AC014B5E5E4FA40FC1
:1003D000B52FB11D2C930196861798F380913501A6
:1003E000680F6093350180E0089581E008950895D5
:1003F0008FEF9FEF08958FEF9FEF08958091140185
:1004000090E09195819591090895CF93DF93CB0169
:10041000EA01642F0E94D001CE01DF91CF910895AF
:10042000CF93DF931F92CDB7DEB7698361E0CE0132
:1004300001960E94D00181E090E00F90DF91CF9172
:10044000089590E080E008951F920F920FB60F92EA
:1004500011242F933F938F939F93AF93BF93EF9369
:10046000FF9380918D0190918E01A0918F01B091A9
:100470009001892B8A2B8B2BB1F190918801E0910F
:100480008901F0918A0180818927808380918D0183
:1004900090918E01A0918F01B091900118161906CC
:1004A0001A061B069CF480918D0190918E01A091FB
:1004B0008F01B09190010197A109B10980938D013D
:1004C00090938E01A0938F01B0939001FF91EF91D3
:1004D000BF91AF919F918F913F912F910F900FBE40
:1004E0000F901F90189580910001E8EBF0E0E491E7
:1004F0009FEF90930001E13009F431C068F1E230E0
:1005000009F433C090E0FC01EE58FF4F2491FC0148
:10051000EA57FF4F3491FC01EC55FF4FE491EE2375
:10052000A9F2222351F0233009F43AC078F52130A2
:1005300009F43CC0223009F43DC0F0E0EE0FFF1F8B
:10054000E656FF4FA591B4918FB7F894EC91309592
:100550003E233C938FBFBACF10926E00D3CF9091C1
:100560006F009D7F90936F00CDCF909170009D7F25
:100570009093700091E09093B0009091B100987FBB
:1005800094609093B1001092B300BCCF2730A9F0D3
:100590002830C9F0243089F6809180008F7D03C017
:1005A000809180008F7780938000C7CF84B58F774C
:1005B00084BDC3CF84B58F7DFBCF8091B0008F7792
:1005C0008093B000BACF8091B0008F7DF9CF1F9299
:1005D0000F920FB60F9211242F933F934F935F9377
:1005E0006F937F938F939F93AF93BF93EF93FF93FB
:1005F00089E991E00E940601FF91EF91BF91AF91CF
:100600009F918F917F916F915F914F913F912F912A
:100610000F900FBE0F901F9018951F920F920FB65C
:100620000F9211242F938F939F93EF93FF93E09159
:10063000A901F091AA018081E091AF01F091B00190
:1006400082FD1BC090818091B2018F5F8F732091DA
:10065000B301821741F0E091B201F0E0E756FE4F9E
:10066000958F8093B201FF91EF919F918F912F9180
:100670000F900FBE0F901F9018958081F4CF1F929E
:100680000F920FB60F9211242F933F938F939F9346
:10069000AF93BF938091840190918501A0918601D1
:1006A000B09187013091830123E0230F2D3758F556
:1006B0000196A11DB11D2093830180938401909325
:1006C0008501A0938601B093870180917F0190916D
:1006D0008001A0918101B09182010196A11DB11DFF
:1006E00080937F0190938001A0938101B093820158
:1006F000BF91AF919F918F913F912F910F900FBE1E
:100700000F901F90189526E8230F0296A11DB11D8A
:10071000D2CF1F920F920FB60F9211242F933F93B7
:100720004F935F936F937F938F939F93AF93BF93F9
:10073000EF93FF938091B900887F803609F44AC017
:10074000F0F5883209F4A5C018F5803109F499C094
:10075000B8F4882309F4F5C0883009F492C0FF91F9
:10076000EF91BF91AF919F918F917F916F915F9129
:100770004F913F912F910F900FBE0F901F901895A2
:10078000883109F486C0803251F78093580114C033
:10079000803409F49BC040F48033B9F38833F9F610
:1007A0008093580185ECAEC0803509F483C088354C
:1007B00009F494C0883499F60E94C601D0CF8839D4
:1007C00009F48AC038F5883729F050F4883611F0DA
:1007D000803729F683E0809359011092570155C064
:1007E000883809F479C0803919F0803809F0B7CF1A
:1007F00080915701803208F06FC0E091570181E08D
:100800008E0F809357018091BB00F0E0E95CFE4FB2
:1008100080833BC0803B39F0D0F4803A09F477C044
:10082000883A09F09CCF84E08093590110923601F8
:1008300010923501F0E0E0E00995809135018111D9
:100840000FC081E0809335011092150109C0803CF2
:1008500009F4A8CF883C09F4A5CF883B09F07FCFE5
:10086000E091360181E08E0F80933601F0E0EB5E7F
:10087000FE4F80818093BB009091360180913501BD
:1008800029C080917E018093BB0085EC8093BC00E1
:1008900066CF90917D0180917C01981758F5E09189
:1008A0007D0181E08E0F80937D01F0E0E45AFE4FE0
:1008B0008081E9CFE0917D0181E08E0F80937D0101
:1008C0008091BB00F0E0E45AFE4F808390917D015F
:1008D00080917C019817C8F285E8D8CFE0917D011E
:1008E00081E08E0F80937D018091BB00F0E0E45A9F
:1008F000FE4F808380915B0181115ECF81E0809308
:100900005A0184EA8093BC001092590128CF85ECEB
:100910008093BC001092590180915701803230F4CD
:10092000E0915701F0E0E95CFE4F108260915701C1
:1009300070E087E391E0F0E0E0E009951092570164
:100940000ECF1092580138CFE9E9F1E013821282FC
:1009500088EE93E0A0E0B0E084839583A683B7831C
:1009600085E091E09183808385EC90E09587848792
:1009700084EC90E09787868780EC90E0918B808B69
:1009800081EC90E0938B828B82EC90E0958B848B52
:1009900086EC90E0978B868B118E128E138E148EC0
:1009A0000895789484B5826084BD84B5816084BDE7
:1009B00085B5826085BD85B5816085BD80916E00FD
:1009C000816080936E00109281008091810082602E
:1009D000809381008091810081608093810080916B
:1009E00080008160809380008091B100846080935A
:1009F000B1008091B00081608093B00080917A0056
:100A0000846080937A0080917A00826080937A007B
:100A100080917A00816080937A0080917A0080686A
:100A200080937A001092C10062E082E00E949501FA
:100A300061E088E00E949501E091A901F091AA018E
:100A400082E08083E091A501F091A6011082E091FF
:100A5000A701F091A8018FEC80831092B101E09181
:100A6000AD01F091AE0186E08083E091AB01F091A1
:100A7000AC01808180618083E091AB01F091AC0199
:100A8000808188608083E091AB01F091AC0180812E
:100A900080688083E091AB01F091AC0180818F7D13
:100AA000808380910001883069F08F3F11F1C0E0B0
:100AB000D0E02097F1F30E94F2008823D1F30E9446
:100AC0000000F7CFE8EBF0E0C491C7FDF0CF61E0A4
:100AD00088E00E949501CC2309F479C0C23009F066
:100AE0008EC08091B100887F84608093B1008BE9D3
:100AF000ADC088E080930001E8EBF0E0C491CF3F07
:100B0000B1F2C13021F150F0C23009F43EC0C7FD4E
:100B1000CECF61E088E00E949501E0CF14BC15BC07
:100B200084B5826084BD85B5816085BDECEAF0E066
:100B3000E491F0E0EE0FFF1FE656FF4F8591949190
:100B4000EEE8F0E0E491E0938C01C0E0C0CF1092B9
:100B500080001092810080918100886080938100E4
:100B600080918100816080938100ECEAF0E0E49163
:100B7000F0E0EE0FFF1FE656FF4F85919491EEE8EF
:100B8000F0E0E491E0938B01A2CF1092B0001092BC
:100B9000B1008091B00082608093B0008091B1007C
:100BA00081608093B100ECEAF0E0E491F0E0EE0FB8
:100BB000FF1FE656FF4F8591949190938A01809391
:100BC0008901EEE8F0E0E491E093880180CF85B5FB
:100BD000887F836085BD8BE987BD80E892E0A0E0D7
:100BE000B0E08093950190939601A0939701B09304
:100BF000980180916E00826080936E0058CFC13062
:100C0000F1F480918100887F8160809381008FE082
:100C100097E2909389008093880080E892E0A0E0BA
:100C2000B0E08093910190939201A0939301B093CF
:100C3000940180916F00826080936F0038CFC23042
:100C400021F0C11134CF8FE0C7CF8FE08093B30084
:100C500080E892E0A0E0B0E080938D0190938E0157
:100C6000A0938F01B0939001809170008260809377
:100C700070001DCFEE0FFF1F0590F491E02D099439
:040C8000F894FFCF16
:100C8400FF0000000028018800B5007501E600C4DB
:040C940000D8000084
:00000001FF
